{
  "transactions": [
    {
      "hash": "0x129f4800f7d98b54084f8735dfa892740e4fa8bca0ea931687862bbb402ba790",
      "transactionType": "CALL",
      "contractName": null,
      "contractAddress": "0xc19547aE488933bcdc613f003930C19d58F4034f",
      "function": "registerDeployment((uint256,uint8,address))",
      "arguments": [
        "(1, 5, 0xc19547aE488933bcdc613f003930C19d58F4034f)"
      ],
      "transaction": {
        "type": "0x02",
        "from": "0xd0f82ce5b90db8e459d6e2ca73b1af6aa50d65c9",
        "to": "0xc19547ae488933bcdc613f003930c19d58f4034f",
        "gas": "0x1987d",
        "value": "0x0",
        "data": "0x214abdf000000000000000000000000000000000000000000000000000000000000000010000000000000000000000000000000000000000000000000000000000000005000000000000000000000000c19547ae488933bcdc613f003930c19d58f4034f",
        "nonce": "0x10",
        "accessList": []
      },
      "additionalContracts": [],
      "isFixedGasLimit": false
    }
  ],
  "receipts": [
    {
      "transactionHash": "0x129f4800f7d98b54084f8735dfa892740e4fa8bca0ea931687862bbb402ba790",
      "transactionIndex": "0x6",
      "blockHash": "0xc08188da737db7d15d69c8d3642278cf58e1821f2a01f1bd364a659cfb3b4616",
      "blockNumber": "0x5b3d11",
      "from": "0xd0F82Ce5B90db8E459d6e2Ca73b1AF6aa50D65c9",
      "to": "0xc19547aE488933bcdc613f003930C19d58F4034f",
      "cumulativeGasUsed": "0x5cafc",
      "gasUsed": "0x127be",
      "contractAddress": null,
      "logs": [
        {
          "address": "0xc19547aE488933bcdc613f003930C19d58F4034f",
          "topics": [
            "0x0bf2126bc80f1679c4d33018afc0fa57d922782bc1ae6833e1f5984907a36dc6"
          ],
          "data": "0x000000000000000000000000000000000000000000000000000000000000000200000000000000000000000000000000000000000000000000000000000000010000000000000000000000000000000000000000000000000000000000000005000000000000000000000000c19547ae488933bcdc613f003930c19d58f4034f",
          "blockHash": "0xc08188da737db7d15d69c8d3642278cf58e1821f2a01f1bd364a659cfb3b4616",
          "blockNumber": "0x5b3d11",
          "transactionHash": "0x129f4800f7d98b54084f8735dfa892740e4fa8bca0ea931687862bbb402ba790",
          "transactionIndex": "0x6",
          "logIndex": "0x4",
          "removed": false
        }
      ],
      "status": "0x1",
      "logsBloom": "0x00000000000000000000000000000000000000000000000000000000000000000000000000000000000000000100000000000000000000000000000000000000000000000000000000000000000000000000000000000000000000000000000000000400000000000000000000000000000000000000000000000000000000000000000000000000000000000000000000000000000000000000000000000000000000000000000000000000000000000000000000000000000000000000000000000000000000000020000000000000000000000000000000000000000000000000000000000000000000200000200000000000000000040000000000000000",
      "type": "0x2",
      "effectiveGasPrice": "0xb2dbb7ff"
    }
  ],
  "libraries": [],
  "pending": [],
  "returns": {},
  "timestamp": 1716698426,
  "chain": 11155111,
  "multi": false,
  "commit": "2176f87"
}