{
  "transactions": [
    {
      "hash": "0x6e642434b910e5322dac3d236ca08adbb1d9c84a57546305cdd33884ce5a2501",
      "transactionType": "CALL",
      "contractName": null,
      "contractAddress": "0xc19547aE488933bcdc613f003930C19d58F4034f",
      "function": "registerDeployment((uint256,uint8,address))",
      "arguments": [
        "(0, 0, 0xc19547aE488933bcdc613f003930C19d58F4034f)"
      ],
      "transaction": {
        "type": "0x02",
        "from": "0xd0f82ce5b90db8e459d6e2ca73b1af6aa50d65c9",
        "to": "0xc19547ae488933bcdc613f003930c19d58f4034f",
        "gas": "0x18941",
        "value": "0x0",
        "data": "0x214abdf000000000000000000000000000000000000000000000000000000000000000000000000000000000000000000000000000000000000000000000000000000000000000000000000000000000c19547ae488933bcdc613f003930c19d58f4034f",
        "nonce": "0x8",
        "accessList": []
      },
      "additionalContracts": [],
      "isFixedGasLimit": false
    }
  ],
  "receipts": [
    {
      "transactionHash": "0x6e642434b910e5322dac3d236ca08adbb1d9c84a57546305cdd33884ce5a2501",
      "transactionIndex": "0xd",
      "blockHash": "0x883e9573ada5221c1b5b184a8eae8aadbde59cc434280bff1a3e2326c43e7fea",
      "blockNumber": "0x5b394c",
      "from": "0xd0F82Ce5B90db8E459d6e2Ca73b1AF6aa50D65c9",
      "to": "0xc19547aE488933bcdc613f003930C19d58F4034f",
      "cumulativeGasUsed": "0x1374a8",
      "gasUsed": "0x11cb6",
      "contractAddress": null,
      "logs": [
        {
          "address": "0xc19547aE488933bcdc613f003930C19d58F4034f",
          "topics": [
            "0x0bf2126bc80f1679c4d33018afc0fa57d922782bc1ae6833e1f5984907a36dc6"
          ],
          "data": "0x000000000000000000000000000000000000000000000000000000000000000000000000000000000000000000000000000000000000000000000000000000000000000000000000000000000000000000000000000000000000000000000000000000000000000000000000c19547ae488933bcdc613f003930c19d58f4034f",
          "blockHash": "0x883e9573ada5221c1b5b184a8eae8aadbde59cc434280bff1a3e2326c43e7fea",
          "blockNumber": "0x5b394c",
          "transactionHash": "0x6e642434b910e5322dac3d236ca08adbb1d9c84a57546305cdd33884ce5a2501",
          "transactionIndex": "0xd",
          "logIndex": "0xd",
          "removed": false
        }
      ],
      "status": "0x1",
      "logsBloom": "0x00000000000000000000000000000000000000000000000000000000000000000000000000000000000000000100000000000000000000000000000000000000000000000000000000000000000000000000000000000000000000000000000000000400000000000000000000000000000000000000000000000000000000000000000000000000000000000000000000000000000000000000000000000000000000000000000000000000000000000000000000000000000000000000000000000000000000000020000000000000000000000000000000000000000000000000000000000000000000200000200000000000000000040000000000000000",
      "type": "0x2",
      "effectiveGasPrice": "0xb2d84841"
    }
  ],
  "libraries": [],
  "pending": [],
  "returns": {},
  "timestamp": 1716686201,
  "chain": 11155111,
  "multi": false,
  "commit": "2176f87"
}