{
  "transactions": [
    {
      "hash": "0xde0e07ff7473c728122ff37db4f73a4b5692f0c43c5eb1f4a905891463af4aa2",
      "transactionType": "CALL",
      "contractName": null,
      "contractAddress": "0xb6fA4E3BBfd97bc5C26d3F39947f9b1aF1828B36",
      "function": "registerDeployment((uint256,uint8,address))",
      "arguments": [
        "(0, 1, 0x47CE0C6eD5B0Ce3d3A51fdb1C52DC66a7c3c2936)"
      ],
      "transaction": {
        "type": "0x02",
        "from": "0xd0f82ce5b90db8e459d6e2ca73b1af6aa50d65c9",
        "to": "0xb6fa4e3bbfd97bc5c26d3f39947f9b1af1828b36",
        "gas": "0x18961",
        "value": "0x0",
        "data": "0x214abdf00000000000000000000000000000000000000000000000000000000000000000000000000000000000000000000000000000000000000000000000000000000100000000000000000000000047ce0c6ed5b0ce3d3a51fdb1c52dc66a7c3c2936",
        "nonce": "0x1b",
        "accessList": []
      },
      "additionalContracts": [],
      "isFixedGasLimit": false
    }
  ],
  "receipts": [],
  "libraries": [],
  "pending": [
    "0xde0e07ff7473c728122ff37db4f73a4b5692f0c43c5eb1f4a905891463af4aa2"
  ],
  "returns": {},
  "timestamp": 1716703276,
  "chain": 11155111,
  "multi": false,
  "commit": "2176f87"
}