{
  "transactions": [
    {
      "hash": "0x0f10c53d2d7733a49093b7d1736cd7913e7e11a9f3d01660be677d7bdc6788d8",
      "transactionType": "CALL",
      "contractName": null,
      "contractAddress": "0x1807102F9050E7111cc240e566ea672382CEbc00",
      "function": "registerDeployment((uint256,uint8,address))",
      "arguments": [
        "(0, 1, 0x47CE0C6eD5B0Ce3d3A51fdb1C52DC66a7c3c2936)"
      ],
      "transaction": {
        "type": "0x02",
        "from": "0xd0f82ce5b90db8e459d6e2ca73b1af6aa50d65c9",
        "to": "0x1807102f9050e7111cc240e566ea672382cebc00",
        "gas": "0x18961",
        "value": "0x0",
        "data": "0x214abdf00000000000000000000000000000000000000000000000000000000000000000000000000000000000000000000000000000000000000000000000000000000100000000000000000000000047ce0c6ed5b0ce3d3a51fdb1c52dc66a7c3c2936",
        "nonce": "0x15",
        "accessList": []
      },
      "additionalContracts": [],
      "isFixedGasLimit": false
    }
  ],
  "receipts": [
    {
      "transactionHash": "0x0f10c53d2d7733a49093b7d1736cd7913e7e11a9f3d01660be677d7bdc6788d8",
      "transactionIndex": "0xa",
      "blockHash": "0x5acb06441fc8449b53f64f7a2878ddf67f432848d7cf13519d3a85d59e691247",
      "blockNumber": "0x5b3e3f",
      "from": "0xd0F82Ce5B90db8E459d6e2Ca73b1AF6aa50D65c9",
      "to": "0x1807102F9050E7111cc240e566ea672382CEbc00",
      "cumulativeGasUsed": "0xcaf17",
      "gasUsed": "0x11cce",
      "contractAddress": null,
      "logs": [
        {
          "address": "0x1807102F9050E7111cc240e566ea672382CEbc00",
          "topics": [
            "0x0bf2126bc80f1679c4d33018afc0fa57d922782bc1ae6833e1f5984907a36dc6"
          ],
          "data": "0x00000000000000000000000000000000000000000000000000000000000000000000000000000000000000000000000000000000000000000000000000000000000000000000000000000000000000000000000000000000000000000000000100000000000000000000000047ce0c6ed5b0ce3d3a51fdb1c52dc66a7c3c2936",
          "blockHash": "0x5acb06441fc8449b53f64f7a2878ddf67f432848d7cf13519d3a85d59e691247",
          "blockNumber": "0x5b3e3f",
          "transactionHash": "0x0f10c53d2d7733a49093b7d1736cd7913e7e11a9f3d01660be677d7bdc6788d8",
          "transactionIndex": "0xa",
          "logIndex": "0x3",
          "removed": false
        }
      ],
      "status": "0x1",
      "logsBloom": "0x00000000000000000000000000000000000000000000000000000000000000000000000000000000000000000100000000000000000000000000000000000000000000000000000000000000000000000000000000000000000000000000000000000000000000000000000000000000000000000000000000000000000000000000000000000000000000000000000000000000000000000000000000000000000000000000000000000000000000000000800000000000000000000000000000000000000010000020000000000000000000002000000000000000000000000000000000000000000000200000000000000000000000000000000000000000",
      "type": "0x2",
      "effectiveGasPrice": "0xb2d76ed0"
    }
  ],
  "libraries": [],
  "pending": [],
  "returns": {},
  "timestamp": 1716702193,
  "chain": 11155111,
  "multi": false,
  "commit": "2176f87"
}