{
  "transactions": [
    {
      "hash": "0xfb5e5b3ca326cc7df9baf185f600630a931d8dcb79de9d944946ddbd41eaf859",
      "transactionType": "CALL",
      "contractName": null,
      "contractAddress": "0xc19547aE488933bcdc613f003930C19d58F4034f",
      "function": "registerDeployment((uint256,uint8,address))",
      "arguments": [
        "(1, 1, 0xc19547aE488933bcdc613f003930C19d58F4034f)"
      ],
      "transaction": {
        "type": "0x02",
        "from": "0xd0f82ce5b90db8e459d6e2ca73b1af6aa50d65c9",
        "to": "0xc19547ae488933bcdc613f003930c19d58f4034f",
        "gas": "0x1987d",
        "value": "0x0",
        "data": "0x214abdf000000000000000000000000000000000000000000000000000000000000000010000000000000000000000000000000000000000000000000000000000000001000000000000000000000000c19547ae488933bcdc613f003930c19d58f4034f",
        "nonce": "0xf",
        "accessList": []
      },
      "additionalContracts": [],
      "isFixedGasLimit": false
    }
  ],
  "receipts": [
    {
      "transactionHash": "0xfb5e5b3ca326cc7df9baf185f600630a931d8dcb79de9d944946ddbd41eaf859",
      "transactionIndex": "0xa",
      "blockHash": "0xaefa0b502c17961b7909b081236c4ea0990ed35242e63b74489798f103aa4ba1",
      "blockNumber": "0x5b3d0c",
      "from": "0xd0F82Ce5B90db8E459d6e2Ca73b1AF6aa50D65c9",
      "to": "0xc19547aE488933bcdc613f003930C19d58F4034f",
      "cumulativeGasUsed": "0x88693",
      "gasUsed": "0x127be",
      "contractAddress": null,
      "logs": [
        {
          "address": "0xc19547aE488933bcdc613f003930C19d58F4034f",
          "topics": [
            "0x0bf2126bc80f1679c4d33018afc0fa57d922782bc1ae6833e1f5984907a36dc6"
          ],
          "data": "0x000000000000000000000000000000000000000000000000000000000000000100000000000000000000000000000000000000000000000000000000000000010000000000000000000000000000000000000000000000000000000000000001000000000000000000000000c19547ae488933bcdc613f003930c19d58f4034f",
          "blockHash": "0xaefa0b502c17961b7909b081236c4ea0990ed35242e63b74489798f103aa4ba1",
          "blockNumber": "0x5b3d0c",
          "transactionHash": "0xfb5e5b3ca326cc7df9baf185f600630a931d8dcb79de9d944946ddbd41eaf859",
          "transactionIndex": "0xa",
          "logIndex": "0x7",
          "removed": false
        }
      ],
      "status": "0x1",
      "logsBloom": "0x00000000000000000000000000000000000000000000000000000000000000000000000000000000000000000100000000000000000000000000000000000000000000000000000000000000000000000000000000000000000000000000000000000400000000000000000000000000000000000000000000000000000000000000000000000000000000000000000000000000000000000000000000000000000000000000000000000000000000000000000000000000000000000000000000000000000000000020000000000000000000000000000000000000000000000000000000000000000000200000200000000000000000040000000000000000",
      "type": "0x2",
      "effectiveGasPrice": "0xb2db6803"
    }
  ],
  "libraries": [],
  "pending": [],
  "returns": {},
  "timestamp": 1716698370,
  "chain": 11155111,
  "multi": false,
  "commit": "2176f87"
}