{
  "transactions": [
    {
      "hash": "0x60f5135a7e3659633cb9a799be2cb506b8183cdd8d614d6657183db47b8a79ff",
      "transactionType": "CALL",
      "contractName": null,
      "contractAddress": "0xc19547aE488933bcdc613f003930C19d58F4034f",
      "function": "registerContract((string))",
      "arguments": [
        "(\"asdf\")"
      ],
      "transaction": {
        "type": "0x02",
        "from": "0xd0f82ce5b90db8e459d6e2ca73b1af6aa50d65c9",
        "to": "0xc19547ae488933bcdc613f003930c19d58f4034f",
        "gas": "0x18d71",
        "value": "0x0",
        "data": "0x58e69cd00000000000000000000000000000000000000000000000000000000000000020000000000000000000000000000000000000000000000000000000000000002000000000000000000000000000000000000000000000000000000000000000046173646600000000000000000000000000000000000000000000000000000000",
        "nonce": "0x6",
        "accessList": []
      },
      "additionalContracts": [],
      "isFixedGasLimit": false
    }
  ],
  "receipts": [
    {
      "transactionHash": "0x60f5135a7e3659633cb9a799be2cb506b8183cdd8d614d6657183db47b8a79ff",
      "transactionIndex": "0x6",
      "blockHash": "0xcd19cadf9d28e183a7bd343960300b86f7bd886bc57f5de4084df145387a6b11",
      "blockNumber": "0x5b3944",
      "from": "0xd0F82Ce5B90db8E459d6e2Ca73b1AF6aa50D65c9",
      "to": "0xc19547aE488933bcdc613f003930C19d58F4034f",
      "cumulativeGasUsed": "0xc1f52",
      "gasUsed": "0x10fc2",
      "contractAddress": null,
      "logs": [
        {
          "address": "0xc19547aE488933bcdc613f003930C19d58F4034f",
          "topics": [
            "0xd6b43a25261e95f4192bf5ef1fa6e346a32101839fa6ec8a5efd9f348f2f5e9e"
          ],
          "data": "0x00000000000000000000000000000000000000000000000000000000000000000000000000000000000000000000000000000000000000000000000000000040000000000000000000000000000000000000000000000000000000000000002000000000000000000000000000000000000000000000000000000000000000046173646600000000000000000000000000000000000000000000000000000000",
          "blockHash": "0xcd19cadf9d28e183a7bd343960300b86f7bd886bc57f5de4084df145387a6b11",
          "blockNumber": "0x5b3944",
          "transactionHash": "0x60f5135a7e3659633cb9a799be2cb506b8183cdd8d614d6657183db47b8a79ff",
          "transactionIndex": "0x6",
          "logIndex": "0x5",
          "removed": false
        }
      ],
      "status": "0x1",
      "logsBloom": "0x00000000000000000000000000000000000000000000000000000000000000000000000000000000000000000000000000000000000000000000000000000000000000000000000000000000000000000000000000000000000000000000000000000400000000000000000000000000000000001000000000000000000000000000000000000000000000000000004000000010000000000000000000000000000000000000000000000000000000000000000000000000000000000000000000000000000000000000000000000000000000000000000000000000000000000000000000000000000000000000200000000000000000040000000000000000",
      "type": "0x2",
      "effectiveGasPrice": "0xb2d8b95a"
    }
  ],
  "libraries": [],
  "pending": [],
  "returns": {},
  "timestamp": 1716686090,
  "chain": 11155111,
  "multi": false,
  "commit": "2176f87"
}