{
  "transactions": [
    {
      "hash": "0x42db0aeaf0757815474d393e67498810c9febf28c238a03a7455802aa2560649",
      "transactionType": "CALL",
      "contractName": null,
      "contractAddress": "0x1807102F9050E7111cc240e566ea672382CEbc00",
      "function": "registerContract((string))",
      "arguments": [
        "(\"bafybeiag3cg5htsldfbbjkssfnsx2wy23lmqis4h3aesx6eilpw6gppi6ils\")"
      ],
      "transaction": {
        "type": "0x02",
        "from": "0xd0f82ce5b90db8e459d6e2ca73b1af6aa50d65c9",
        "to": "0x1807102f9050e7111cc240e566ea672382cebc00",
        "gas": "0x29197",
        "value": "0x0",
        "data": "0x58e69cd000000000000000000000000000000000000000000000000000000000000000200000000000000000000000000000000000000000000000000000000000000020000000000000000000000000000000000000000000000000000000000000003d626166796265696167336367356874736c646662626a6b7373666e737832777932336c6d716973346833616573783665696c7077366770706936696c73000000",
        "nonce": "0x14",
        "accessList": []
      },
      "additionalContracts": [],
      "isFixedGasLimit": false
    }
  ],
  "receipts": [
    {
      "transactionHash": "0x42db0aeaf0757815474d393e67498810c9febf28c238a03a7455802aa2560649",
      "transactionIndex": "0xb",
      "blockHash": "0xe9bf6fe968134e27e2635f87f0f2a7c04d21c089a09617ad8fe0ad171b9c0e40",
      "blockNumber": "0x5b3e36",
      "from": "0xd0F82Ce5B90db8E459d6e2Ca73b1AF6aa50D65c9",
      "to": "0x1807102F9050E7111cc240e566ea672382CEbc00",
      "cumulativeGasUsed": "0x7ddcb",
      "gasUsed": "0x1c1a3",
      "contractAddress": null,
      "logs": [
        {
          "address": "0x1807102F9050E7111cc240e566ea672382CEbc00",
          "topics": [
            "0xd6b43a25261e95f4192bf5ef1fa6e346a32101839fa6ec8a5efd9f348f2f5e9e"
          ],
          "data": "0x000000000000000000000000000000000000000000000000000000000000000000000000000000000000000000000000000000000000000000000000000000400000000000000000000000000000000000000000000000000000000000000020000000000000000000000000000000000000000000000000000000000000003d626166796265696167336367356874736c646662626a6b7373666e737832777932336c6d716973346833616573783665696c7077366770706936696c73000000",
          "blockHash": "0xe9bf6fe968134e27e2635f87f0f2a7c04d21c089a09617ad8fe0ad171b9c0e40",
          "blockNumber": "0x5b3e36",
          "transactionHash": "0x42db0aeaf0757815474d393e67498810c9febf28c238a03a7455802aa2560649",
          "transactionIndex": "0xb",
          "logIndex": "0x4",
          "removed": false
        }
      ],
      "status": "0x1",
      "logsBloom": "0x00000000000000000000000000000000000000000000000000000000000000000000000000000000000000000000000000000000000000000000000000000000000000000000000000000000000000000000000000000000000000000000000000000000000000000000000000000000000000001000000000000000000000000000000000000000000000000000004000000010000000000000000000000000000000000000000000000000000000000000800000000000000000000000000000000000000010000000000000000000000000002000000000000000000000000000000000000000000000000000000000000000000000000000000000000000",
      "type": "0x2",
      "effectiveGasPrice": "0xb2d8b5c2"
    }
  ],
  "libraries": [],
  "pending": [],
  "returns": {},
  "timestamp": 1716702091,
  "chain": 11155111,
  "multi": false,
  "commit": "2176f87"
}