{
  "transactions": [
    {
      "hash": "0xabfa21acc74fc356eab855054158cac181581e72eedcf35d0bef1da702145409",
      "transactionType": "CALL",
      "contractName": null,
      "contractAddress": "0xc19547aE488933bcdc613f003930C19d58F4034f",
      "function": "registerContract((string))",
      "arguments": [
        "(\"Qmb3KUpgXZkcXU8C3qEEGY42dbJyGJJ1tVXJN9W81eFWVy\")"
      ],
      "transaction": {
        "type": "0x02",
        "from": "0xd0f82ce5b90db8e459d6e2ca73b1af6aa50d65c9",
        "to": "0xc19547ae488933bcdc613f003930c19d58f4034f",
        "gas": "0x22edf",
        "value": "0x0",
        "data": "0x58e69cd000000000000000000000000000000000000000000000000000000000000000200000000000000000000000000000000000000000000000000000000000000020000000000000000000000000000000000000000000000000000000000000002e516d62334b557067585a6b6358553843337145454759343264624a79474a4a317456584a4e395738316546575679000000000000000000000000000000000000",
        "nonce": "0xb",
        "accessList": []
      },
      "additionalContracts": [],
      "isFixedGasLimit": false
    }
  ],
  "receipts": [
    {
      "transactionHash": "0xabfa21acc74fc356eab855054158cac181581e72eedcf35d0bef1da702145409",
      "transactionIndex": "0x8",
      "blockHash": "0x7faf369dece9d74341ae76c0e3773fc66b556d409d879f4e8793254a122c0a21",
      "blockNumber": "0x5b3bce",
      "from": "0xd0F82Ce5B90db8E459d6e2Ca73b1AF6aa50D65c9",
      "to": "0xc19547aE488933bcdc613f003930C19d58F4034f",
      "cumulativeGasUsed": "0x7101f",
      "gasUsed": "0x17e23",
      "contractAddress": null,
      "logs": [
        {
          "address": "0xc19547aE488933bcdc613f003930C19d58F4034f",
          "topics": [
            "0xd6b43a25261e95f4192bf5ef1fa6e346a32101839fa6ec8a5efd9f348f2f5e9e"
          ],
          "data": "0x000000000000000000000000000000000000000000000000000000000000000100000000000000000000000000000000000000000000000000000000000000400000000000000000000000000000000000000000000000000000000000000020000000000000000000000000000000000000000000000000000000000000002e516d62334b557067585a6b6358553843337145454759343264624a79474a4a317456584a4e395738316546575679000000000000000000000000000000000000",
          "blockHash": "0x7faf369dece9d74341ae76c0e3773fc66b556d409d879f4e8793254a122c0a21",
          "blockNumber": "0x5b3bce",
          "transactionHash": "0xabfa21acc74fc356eab855054158cac181581e72eedcf35d0bef1da702145409",
          "transactionIndex": "0x8",
          "logIndex": "0x6",
          "removed": false
        }
      ],
      "status": "0x1",
      "logsBloom": "0x00000000000000000000000000000000000000000000000000000000000000000000000000000000000000000000000000000000000000000000000000000000000000000000000000000000000000000000000000000000000000000000000000000400000000000000000000000000000000001000000000000000000000000000000000000000000000000000004000000010000000000000000000000000000000000000000000000000000000000000000000000000000000000000000000000000000000000000000000000000000000000000000000000000000000000000000000000000000000000000200000000000000000040000000000000000",
      "type": "0x2",
      "effectiveGasPrice": "0xb2da0683"
    }
  ],
  "libraries": [],
  "pending": [],
  "returns": {},
  "timestamp": 1716694443,
  "chain": 11155111,
  "multi": false,
  "commit": "2176f87"
}