{
  "transactions": [
    {
      "hash": "0x50fa786967584d87caa3bff09372a2a43c9aeeab22dd33ef446b51d17df7a31e",
      "transactionType": "CALL",
      "contractName": null,
      "contractAddress": "0xb6fA4E3BBfd97bc5C26d3F39947f9b1aF1828B36",
      "function": "registerContract((string))",
      "arguments": [
        "(\"QmNoNgEKpXDLS6ntdwyDE2hr1ic6YYhUZEWHRHbDq2jHh3\")"
      ],
      "transaction": {
        "type": "0x02",
        "from": "0xd0f82ce5b90db8e459d6e2ca73b1af6aa50d65c9",
        "to": "0xb6fa4e3bbfd97bc5c26d3f39947f9b1af1828b36",
        "gas": "0x26c15",
        "value": "0x0",
        "data": "0x58e69cd000000000000000000000000000000000000000000000000000000000000000200000000000000000000000000000000000000000000000000000000000000020000000000000000000000000000000000000000000000000000000000000002e516d4e6f4e67454b7058444c53366e74647779444532687231696336595968555a4557485248624471326a486833000000000000000000000000000000000000",
        "nonce": "0x1a",
        "accessList": []
      },
      "additionalContracts": [],
      "isFixedGasLimit": false
    }
  ],
  "receipts": [
    {
      "transactionHash": "0x50fa786967584d87caa3bff09372a2a43c9aeeab22dd33ef446b51d17df7a31e",
      "transactionIndex": "0x6",
      "blockHash": "0x58f15566d1733e56ad31f838037960dfb0902f4d8703a16e537d9e81ed0dcadd",
      "blockNumber": "0x5b3e8b",
      "from": "0xd0F82Ce5B90db8E459d6e2Ca73b1AF6aa50D65c9",
      "to": "0xb6fA4E3BBfd97bc5C26d3F39947f9b1aF1828B36",
      "cumulativeGasUsed": "0x4d8c0",
      "gasUsed": "0x1c0ef",
      "contractAddress": null,
      "logs": [
        {
          "address": "0xb6fA4E3BBfd97bc5C26d3F39947f9b1aF1828B36",
          "topics": [
            "0xd6b43a25261e95f4192bf5ef1fa6e346a32101839fa6ec8a5efd9f348f2f5e9e"
          ],
          "data": "0x000000000000000000000000000000000000000000000000000000000000000000000000000000000000000000000000000000000000000000000000000000400000000000000000000000000000000000000000000000000000000000000020000000000000000000000000000000000000000000000000000000000000002e516d4e6f4e67454b7058444c53366e74647779444532687231696336595968555a4557485248624471326a486833000000000000000000000000000000000000",
          "blockHash": "0x58f15566d1733e56ad31f838037960dfb0902f4d8703a16e537d9e81ed0dcadd",
          "blockNumber": "0x5b3e8b",
          "transactionHash": "0x50fa786967584d87caa3bff09372a2a43c9aeeab22dd33ef446b51d17df7a31e",
          "transactionIndex": "0x6",
          "logIndex": "0x4",
          "removed": false
        }
      ],
      "status": "0x1",
      "logsBloom": "0x00000000000000000000000000000000000000000000000000000000000000000000000000000000000000000000000000200000000000020000000000000000000000000000000000000000000000000000000000000000000000000000000000000000000000000000000000000000000000001000000000000000000000000000000000000000000000000000004000000010000000000000000000000000000000000000000000080000000000000000000000000000000000000000000000000000000000000000000000000000000000000000000000000000000000000000000000000000000000000000000000000000000000000000000000000000",
      "type": "0x2",
      "effectiveGasPrice": "0xb2d8bcd7"
    }
  ],
  "libraries": [],
  "pending": [],
  "returns": {},
  "timestamp": 1716703182,
  "chain": 11155111,
  "multi": false,
  "commit": "2176f87"
}