{
  "transactions": [
    {
      "hash": "0xedd890f28e225870d957b43fc1910e3b0e9fee45a4cc24d167c98fbbe714b3c5",
      "transactionType": "CALL",
      "contractName": null,
      "contractAddress": "0xc19547aE488933bcdc613f003930C19d58F4034f",
      "function": "registerFrontend((uint256,string))",
      "arguments": [
        "(0, \"asdf\")"
      ],
      "transaction": {
        "type": "0x02",
        "from": "0xd0f82ce5b90db8e459d6e2ca73b1af6aa50d65c9",
        "to": "0xc19547ae488933bcdc613f003930c19d58f4034f",
        "gas": "0x191af",
        "value": "0x0",
        "data": "0xba17fef800000000000000000000000000000000000000000000000000000000000000200000000000000000000000000000000000000000000000000000000000000000000000000000000000000000000000000000000000000000000000000000004000000000000000000000000000000000000000000000000000000000000000046173646600000000000000000000000000000000000000000000000000000000",
        "nonce": "0x7",
        "accessList": []
      },
      "additionalContracts": [],
      "isFixedGasLimit": false
    }
  ],
  "receipts": [
    {
      "transactionHash": "0xedd890f28e225870d957b43fc1910e3b0e9fee45a4cc24d167c98fbbe714b3c5",
      "transactionIndex": "0xb",
      "blockHash": "0xa38e297e1d78007d5a5489d1f66a5c304719e4daeed4648c11cf0175c4dab4de",
      "blockNumber": "0x5b3949",
      "from": "0xd0F82Ce5B90db8E459d6e2Ca73b1AF6aa50D65c9",
      "to": "0xc19547aE488933bcdc613f003930C19d58F4034f",
      "cumulativeGasUsed": "0x685c7",
      "gasUsed": "0x122d0",
      "contractAddress": null,
      "logs": [
        {
          "address": "0xc19547aE488933bcdc613f003930C19d58F4034f",
          "topics": [
            "0x60807baf57f83c1023f35408c3b9bc2fbd731bc72505af905963a86578daaec2"
          ],
          "data": "0x000000000000000000000000000000000000000000000000000000000000000000000000000000000000000000000000000000000000000000000000000000400000000000000000000000000000000000000000000000000000000000000000000000000000000000000000000000000000000000000000000000000000004000000000000000000000000000000000000000000000000000000000000000046173646600000000000000000000000000000000000000000000000000000000",
          "blockHash": "0xa38e297e1d78007d5a5489d1f66a5c304719e4daeed4648c11cf0175c4dab4de",
          "blockNumber": "0x5b3949",
          "transactionHash": "0xedd890f28e225870d957b43fc1910e3b0e9fee45a4cc24d167c98fbbe714b3c5",
          "transactionIndex": "0xb",
          "logIndex": "0x6",
          "removed": false
        }
      ],
      "status": "0x1",
      "logsBloom": "0x00000000000000000000000000000000000000000000000000000000000000000000000000000000000000000000000000000000000000000000000000000000000000000000000000000000000010000000000000000000000000000000000000000400000000000000000000000000000000000000000000000000000000000000000000000000000000008000000000000000000000000000000000000000000000000000000000000000000000000000000000000000000000000000000000000000000000000000000000004000000000000000000000000000000000000000000000000000000000000000200000000000000000040000000000000000",
      "type": "0x2",
      "effectiveGasPrice": "0xb2d8051c"
    }
  ],
  "libraries": [],
  "pending": [],
  "returns": {},
  "timestamp": 1716686155,
  "chain": 11155111,
  "multi": false,
  "commit": "2176f87"
}