{
  "transactions": [
    {
      "hash": "0xc50fd085958ef7bfea62175c78958b2ba470500c86d7606949843a87540bfa60",
      "transactionType": "CALL",
      "contractName": null,
      "contractAddress": "0xc19547aE488933bcdc613f003930C19d58F4034f",
      "function": "registerFrontend((uint256,string))",
      "arguments": [
        "(1, \"xyz\")"
      ],
      "transaction": {
        "type": "0x02",
        "from": "0xd0f82ce5b90db8e459d6e2ca73b1af6aa50d65c9",
        "to": "0xc19547ae488933bcdc613f003930c19d58f4034f",
        "gas": "0x1a0ca",
        "value": "0x0",
        "data": "0xba17fef8000000000000000000000000000000000000000000000000000000000000002000000000000000000000000000000000000000000000000000000000000000010000000000000000000000000000000000000000000000000000000000000040000000000000000000000000000000000000000000000000000000000000000378797a0000000000000000000000000000000000000000000000000000000000",
        "nonce": "0xe",
        "accessList": []
      },
      "additionalContracts": [],
      "isFixedGasLimit": false
    }
  ],
  "receipts": [],
  "libraries": [],
  "pending": [
    "0xc50fd085958ef7bfea62175c78958b2ba470500c86d7606949843a87540bfa60"
  ],
  "returns": {},
  "timestamp": 1716698310,
  "chain": 11155111,
  "multi": false,
  "commit": "2176f87"
}