{
  "transactions": [
    {
      "hash": "0x1490db7aab90cf30149147a6c386e53296d036811d2563217ad14080576db8dc",
      "transactionType": "CALL",
      "contractName": null,
      "contractAddress": "0xc19547aE488933bcdc613f003930C19d58F4034f",
      "function": "registerFrontend((uint256,string))",
      "arguments": [
        "(1, \"fdsa\")"
      ],
      "transaction": {
        "type": "0x02",
        "from": "0xd0f82ce5b90db8e459d6e2ca73b1af6aa50d65c9",
        "to": "0xc19547ae488933bcdc613f003930c19d58f4034f",
        "gas": "0x1a0da",
        "value": "0x0",
        "data": "0xba17fef800000000000000000000000000000000000000000000000000000000000000200000000000000000000000000000000000000000000000000000000000000001000000000000000000000000000000000000000000000000000000000000004000000000000000000000000000000000000000000000000000000000000000046664736100000000000000000000000000000000000000000000000000000000",
        "nonce": "0xd",
        "accessList": []
      },
      "additionalContracts": [],
      "isFixedGasLimit": false
    }
  ],
  "receipts": [
    {
      "transactionHash": "0x1490db7aab90cf30149147a6c386e53296d036811d2563217ad14080576db8dc",
      "transactionIndex": "0x8",
      "blockHash": "0xb26a0457739a1fb6f8236b510f0f0cd5deb2ea5b51cb7a353c5b24e912062bba",
      "blockNumber": "0x5b3d06",
      "from": "0xd0F82Ce5B90db8E459d6e2Ca73b1AF6aa50D65c9",
      "to": "0xc19547aE488933bcdc613f003930C19d58F4034f",
      "cumulativeGasUsed": "0x57fea",
      "gasUsed": "0x12dcc",
      "contractAddress": null,
      "logs": [
        {
          "address": "0xc19547aE488933bcdc613f003930C19d58F4034f",
          "topics": [
            "0x60807baf57f83c1023f35408c3b9bc2fbd731bc72505af905963a86578daaec2"
          ],
          "data": "0x000000000000000000000000000000000000000000000000000000000000000100000000000000000000000000000000000000000000000000000000000000400000000000000000000000000000000000000000000000000000000000000001000000000000000000000000000000000000000000000000000000000000004000000000000000000000000000000000000000000000000000000000000000046664736100000000000000000000000000000000000000000000000000000000",
          "blockHash": "0xb26a0457739a1fb6f8236b510f0f0cd5deb2ea5b51cb7a353c5b24e912062bba",
          "blockNumber": "0x5b3d06",
          "transactionHash": "0x1490db7aab90cf30149147a6c386e53296d036811d2563217ad14080576db8dc",
          "transactionIndex": "0x8",
          "logIndex": "0x6",
          "removed": false
        }
      ],
      "status": "0x1",
      "logsBloom": "0x00000000000000000000000000000000000000000000000000000000000000000000000000000000000000000000000000000000000000000000000000000000000000000000000000000000000010000000000000000000000000000000000000000400000000000000000000000000000000000000000000000000000000000000000000000000000000008000000000000000000000000000000000000000000000000000000000000000000000000000000000000000000000000000000000000000000000000000000000004000000000000000000000000000000000000000000000000000000000000000200000000000000000040000000000000000",
      "type": "0x2",
      "effectiveGasPrice": "0xb2db0f8e"
    }
  ],
  "libraries": [],
  "pending": [],
  "returns": {},
  "timestamp": 1716698295,
  "chain": 11155111,
  "multi": false,
  "commit": "2176f87"
}