{
  "transactions": [
    {
      "hash": "0xc50fd085958ef7bfea62175c78958b2ba470500c86d7606949843a87540bfa60",
      "transactionType": "CALL",
      "contractName": null,
      "contractAddress": "0xc19547aE488933bcdc613f003930C19d58F4034f",
      "function": "registerFrontend((uint256,string))",
      "arguments": [
        "(1, \"xyz\")"
      ],
      "transaction": {
        "type": "0x02",
        "from": "0xd0f82ce5b90db8e459d6e2ca73b1af6aa50d65c9",
        "to": "0xc19547ae488933bcdc613f003930c19d58f4034f",
        "gas": "0x1a0ca",
        "value": "0x0",
        "data": "0xba17fef8000000000000000000000000000000000000000000000000000000000000002000000000000000000000000000000000000000000000000000000000000000010000000000000000000000000000000000000000000000000000000000000040000000000000000000000000000000000000000000000000000000000000000378797a0000000000000000000000000000000000000000000000000000000000",
        "nonce": "0xe",
        "accessList": []
      },
      "additionalContracts": [],
      "isFixedGasLimit": false
    }
  ],
  "receipts": [
    {
      "transactionHash": "0xc50fd085958ef7bfea62175c78958b2ba470500c86d7606949843a87540bfa60",
      "transactionIndex": "0x9",
      "blockHash": "0x502f7b4171f29e0661fb4778526eceeb0612152d78045ee16c9c982e59bc8d22",
      "blockNumber": "0x5b3d08",
      "from": "0xd0F82Ce5B90db8E459d6e2Ca73b1AF6aa50D65c9",
      "to": "0xc19547aE488933bcdc613f003930C19d58F4034f",
      "cumulativeGasUsed": "0xa5ca0",
      "gasUsed": "0x12dc0",
      "contractAddress": null,
      "logs": [
        {
          "address": "0xc19547aE488933bcdc613f003930C19d58F4034f",
          "topics": [
            "0x60807baf57f83c1023f35408c3b9bc2fbd731bc72505af905963a86578daaec2"
          ],
          "data": "0x0000000000000000000000000000000000000000000000000000000000000002000000000000000000000000000000000000000000000000000000000000004000000000000000000000000000000000000000000000000000000000000000010000000000000000000000000000000000000000000000000000000000000040000000000000000000000000000000000000000000000000000000000000000378797a0000000000000000000000000000000000000000000000000000000000",
          "blockHash": "0x502f7b4171f29e0661fb4778526eceeb0612152d78045ee16c9c982e59bc8d22",
          "blockNumber": "0x5b3d08",
          "transactionHash": "0xc50fd085958ef7bfea62175c78958b2ba470500c86d7606949843a87540bfa60",
          "transactionIndex": "0x9",
          "logIndex": "0xa",
          "removed": false
        }
      ],
      "status": "0x1",
      "logsBloom": "0x00000000000000000000000000000000000000000000000000000000000000000000000000000000000000000000000000000000000000000000000000000000000000000000000000000000000010000000000000000000000000000000000000000400000000000000000000000000000000000000000000000000000000000000000000000000000000008000000000000000000000000000000000000000000000000000000000000000000000000000000000000000000000000000000000000000000000000000000000004000000000000000000000000000000000000000000000000000000000000000200000000000000000040000000000000000",
      "type": "0x2",
      "effectiveGasPrice": "0xb2dc67ea"
    }
  ],
  "libraries": [],
  "pending": [],
  "returns": {},
  "timestamp": 1716698317,
  "chain": 11155111,
  "multi": false,
  "commit": "2176f87"
}