{
  "transactions": [
    {
      "hash": "0xf87a99aa67a457d7eff93e64b6b1d30de26718c977613ecefd27f46f82f856c7",
      "transactionType": "CALL",
      "contractName": null,
      "contractAddress": "0xb6fA4E3BBfd97bc5C26d3F39947f9b1aF1828B36",
      "function": "registerFrontend((uint256,string))",
      "arguments": [
        "(0, \"bafybeicu2anhh7cxbeeakzqjfy3pisok2nakyiemm3jxd66ng35ib6y5ri\")"
      ],
      "transaction": {
        "type": "0x02",
        "from": "0xd0f82ce5b90db8e459d6e2ca73b1af6aa50d65c9",
        "to": "0xb6fa4e3bbfd97bc5c26d3f39947f9b1af1828b36",
        "gas": "0x2ad52",
        "value": "0x0",
        "data": "0xba17fef8000000000000000000000000000000000000000000000000000000000000002000000000000000000000000000000000000000000000000000000000000000000000000000000000000000000000000000000000000000000000000000000040000000000000000000000000000000000000000000000000000000000000003b62616679626569637532616e6868376378626565616b7a716a6679337069736f6b326e616b7969656d6d336a786436366e673335696236793572690000000000",
        "nonce": "0x1c",
        "accessList": []
      },
      "additionalContracts": [],
      "isFixedGasLimit": false
    }
  ],
  "receipts": [
    {
      "transactionHash": "0xf87a99aa67a457d7eff93e64b6b1d30de26718c977613ecefd27f46f82f856c7",
      "transactionIndex": "0x9",
      "blockHash": "0x0fbd3845a6511c64686cbf6c537225dace50d2ea60cfdb291ead2272a6e75a0a",
      "blockNumber": "0x5b3e9e",
      "from": "0xd0F82Ce5B90db8E459d6e2Ca73b1AF6aa50D65c9",
      "to": "0xb6fA4E3BBfd97bc5C26d3F39947f9b1aF1828B36",
      "cumulativeGasUsed": "0xe3290",
      "gasUsed": "0x1d499",
      "contractAddress": null,
      "logs": [
        {
          "address": "0xb6fA4E3BBfd97bc5C26d3F39947f9b1aF1828B36",
          "topics": [
            "0x60807baf57f83c1023f35408c3b9bc2fbd731bc72505af905963a86578daaec2"
          ],
          "data": "0x0000000000000000000000000000000000000000000000000000000000000000000000000000000000000000000000000000000000000000000000000000004000000000000000000000000000000000000000000000000000000000000000000000000000000000000000000000000000000000000000000000000000000040000000000000000000000000000000000000000000000000000000000000003b62616679626569637532616e6868376378626565616b7a716a6679337069736f6b326e616b7969656d6d336a786436366e673335696236793572690000000000",
          "blockHash": "0x0fbd3845a6511c64686cbf6c537225dace50d2ea60cfdb291ead2272a6e75a0a",
          "blockNumber": "0x5b3e9e",
          "transactionHash": "0xf87a99aa67a457d7eff93e64b6b1d30de26718c977613ecefd27f46f82f856c7",
          "transactionIndex": "0x9",
          "logIndex": "0x5",
          "removed": false
        }
      ],
      "status": "0x1",
      "logsBloom": "0x00000000000000000000000000000000000000000000000000000000000000000000000000000000000000000000000000200000000000020000000000000000000000000000000000000000000010000000000000000000000000000000000000000000000000000000000000000000000000000000000000000000000000000000000000000000000000008000000000000000000000000000000000000000000000000000000000080000000000000000000000000000000000000000000000000000000000000000000000004000000000000000000000000000000000000000000000000000000000000000000000000000000000000000000000000000",
      "type": "0x2",
      "effectiveGasPrice": "0xb2d6ca0f"
    }
  ],
  "libraries": [],
  "pending": [],
  "returns": {},
  "timestamp": 1716703405,
  "chain": 11155111,
  "multi": false,
  "commit": "2176f87"
}