{
  "transactions": [
    {
      "hash": "0xadbe357e793fd019e0e98509bbcaddb61d209585b6ab3ccb141e41dfb9b208ed",
      "transactionType": "CALL",
      "contractName": null,
      "contractAddress": "0x1807102F9050E7111cc240e566ea672382CEbc00",
      "function": "registerFrontend((uint256,string))",
      "arguments": [
        "(0, \"bafybeicu2anhh7cxbeeakzqjfy3pisok2nakyiemm3jxd66ng35ib6y5ri\")"
      ],
      "transaction": {
        "type": "0x02",
        "from": "0xd0f82ce5b90db8e459d6e2ca73b1af6aa50d65c9",
        "to": "0x1807102f9050e7111cc240e566ea672382cebc00",
        "gas": "0x2ad52",
        "value": "0x0",
        "data": "0xba17fef8000000000000000000000000000000000000000000000000000000000000002000000000000000000000000000000000000000000000000000000000000000000000000000000000000000000000000000000000000000000000000000000040000000000000000000000000000000000000000000000000000000000000003b62616679626569637532616e6868376378626565616b7a716a6679337069736f6b326e616b7969656d6d336a786436366e673335696236793572690000000000",
        "nonce": "0x16",
        "accessList": []
      },
      "additionalContracts": [],
      "isFixedGasLimit": false
    }
  ],
  "receipts": [
    {
      "transactionHash": "0xadbe357e793fd019e0e98509bbcaddb61d209585b6ab3ccb141e41dfb9b208ed",
      "transactionIndex": "0x7",
      "blockHash": "0x30a230ea9bd279e3668eda2d227a52a955ae0fd486ee6528814c3b4cef07e8b6",
      "blockNumber": "0x5b3e47",
      "from": "0xd0F82Ce5B90db8E459d6e2Ca73b1AF6aa50D65c9",
      "to": "0x1807102F9050E7111cc240e566ea672382CEbc00",
      "cumulativeGasUsed": "0x47923",
      "gasUsed": "0x1d499",
      "contractAddress": null,
      "logs": [
        {
          "address": "0x1807102F9050E7111cc240e566ea672382CEbc00",
          "topics": [
            "0x60807baf57f83c1023f35408c3b9bc2fbd731bc72505af905963a86578daaec2"
          ],
          "data": "0x0000000000000000000000000000000000000000000000000000000000000000000000000000000000000000000000000000000000000000000000000000004000000000000000000000000000000000000000000000000000000000000000000000000000000000000000000000000000000000000000000000000000000040000000000000000000000000000000000000000000000000000000000000003b62616679626569637532616e6868376378626565616b7a716a6679337069736f6b326e616b7969656d6d336a786436366e673335696236793572690000000000",
          "blockHash": "0x30a230ea9bd279e3668eda2d227a52a955ae0fd486ee6528814c3b4cef07e8b6",
          "blockNumber": "0x5b3e47",
          "transactionHash": "0xadbe357e793fd019e0e98509bbcaddb61d209585b6ab3ccb141e41dfb9b208ed",
          "transactionIndex": "0x7",
          "logIndex": "0x2",
          "removed": false
        }
      ],
      "status": "0x1",
      "logsBloom": "0x00000000000000000000000000000000000000000000000000000000000000000000000000000000000000000000000000000000000000000000000000000000000000000000000000000000000010000000000000000000000000000000000000000000000000000000000000000000000000000000000000000000000000000000000000000000000000008000000000000000000000000000000000000000000000000000000000000000000000000000800000000000000000000000000000000000000010000000000000004000000000002000000000000000000000000000000000000000000000000000000000000000000000000000000000000000",
      "type": "0x2",
      "effectiveGasPrice": "0xb2d85405"
    }
  ],
  "libraries": [],
  "pending": [],
  "returns": {},
  "timestamp": 1716702306,
  "chain": 11155111,
  "multi": false,
  "commit": "2176f87"
}