{
  "transactions": [
    {
      "hash": "0x6c32f08b46ab63269ebce8373357f0ebbb86fb6f43209b9d2b3bb77cdc967a31",
      "transactionType": "CALL",
      "contractName": null,
      "contractAddress": "0xc19547aE488933bcdc613f003930C19d58F4034f",
      "function": "certifyContract(uint256)",
      "arguments": [
        "0"
      ],
      "transaction": {
        "type": "0x02",
        "from": "0xd0f82ce5b90db8e459d6e2ca73b1af6aa50d65c9",
        "to": "0xc19547ae488933bcdc613f003930c19d58f4034f",
        "gas": "0x19b1d",
        "value": "0x0",
        "data": "0x3e24036e0000000000000000000000000000000000000000000000000000000000000000",
        "nonce": "0x9",
        "accessList": []
      },
      "additionalContracts": [],
      "isFixedGasLimit": false
    }
  ],
  "receipts": [
    {
      "transactionHash": "0x6c32f08b46ab63269ebce8373357f0ebbb86fb6f43209b9d2b3bb77cdc967a31",
      "transactionIndex": "0x5",
      "blockHash": "0x7be236d73b4ce49581bd8504282f182cd8bbc55d9379cfe3b029d53c231e50b7",
      "blockNumber": "0x5b3954",
      "from": "0xd0F82Ce5B90db8E459d6e2Ca73b1AF6aa50D65c9",
      "to": "0xc19547aE488933bcdc613f003930C19d58F4034f",
      "cumulativeGasUsed": "0x456cd",
      "gasUsed": "0x1191b",
      "contractAddress": null,
      "logs": [
        {
          "address": "0xc19547aE488933bcdc613f003930C19d58F4034f",
          "topics": [
            "0xc06b3c4ac1016b789678fcd0cb2f65f5fcfcf81242ee624d3992408a294ce1f4"
          ],
          "data": "0x00000000000000000000000000000000000000000000000000000000000000000000000000000000000000000000000000000000000000000000000000000000000000000000000000000000d0f82ce5b90db8e459d6e2ca73b1af6aa50d65c9",
          "blockHash": "0x7be236d73b4ce49581bd8504282f182cd8bbc55d9379cfe3b029d53c231e50b7",
          "blockNumber": "0x5b3954",
          "transactionHash": "0x6c32f08b46ab63269ebce8373357f0ebbb86fb6f43209b9d2b3bb77cdc967a31",
          "transactionIndex": "0x5",
          "logIndex": "0x5",
          "removed": false
        }
      ],
      "status": "0x1",
      "logsBloom": "0x00000000000000000000000000000000000000000000000000000000000000000000000000000000000000004000000000000000000000000000000000000000000000000000000000000000000000000000000000000000000000000000000000000400000000000800000000000000000000000000000000000040000000000000000000000000000000000000000000000000000000000000000000000000000000000000000000000000000000000000000000000000000000000000000000000000000000000000000000000000000000000000000000000000000000000000000000000000000000000000200000000000000000040000000000000000",
      "type": "0x2",
      "effectiveGasPrice": "0xb2d68f24"
    }
  ],
  "libraries": [],
  "pending": [],
  "returns": {},
  "timestamp": 1716686306,
  "chain": 11155111,
  "multi": false,
  "commit": "2176f87"
}