{
  "transactions": [
    {
      "hash": "0xd70797295edc7013b48499cdef605a50fb7f1b7529ea23287a42ec1c4baacc77",
      "transactionType": "CALL",
      "contractName": null,
      "contractAddress": "0x1807102F9050E7111cc240e566ea672382CEbc00",
      "function": "certifyContract(uint256)",
      "arguments": [
        "0"
      ],
      "transaction": {
        "type": "0x02",
        "from": "0xd0f82ce5b90db8e459d6e2ca73b1af6aa50d65c9",
        "to": "0x1807102f9050e7111cc240e566ea672382cebc00",
        "gas": "0x19b1d",
        "value": "0x0",
        "data": "0x3e24036e0000000000000000000000000000000000000000000000000000000000000000",
        "nonce": "0x17",
        "accessList": []
      },
      "additionalContracts": [],
      "isFixedGasLimit": false
    }
  ],
  "receipts": [
    {
      "transactionHash": "0xd70797295edc7013b48499cdef605a50fb7f1b7529ea23287a42ec1c4baacc77",
      "transactionIndex": "0xa",
      "blockHash": "0xcf80cb17e175294c362113ca3a446dac88d26c4fa52fe65c126477fc8e8b0008",
      "blockNumber": "0x5b3e4d",
      "from": "0xd0F82Ce5B90db8E459d6e2Ca73b1AF6aa50D65c9",
      "to": "0x1807102F9050E7111cc240e566ea672382CEbc00",
      "cumulativeGasUsed": "0x743be",
      "gasUsed": "0x1191b",
      "contractAddress": null,
      "logs": [
        {
          "address": "0x1807102F9050E7111cc240e566ea672382CEbc00",
          "topics": [
            "0xc06b3c4ac1016b789678fcd0cb2f65f5fcfcf81242ee624d3992408a294ce1f4"
          ],
          "data": "0x00000000000000000000000000000000000000000000000000000000000000000000000000000000000000000000000000000000000000000000000000000000000000000000000000000000d0f82ce5b90db8e459d6e2ca73b1af6aa50d65c9",
          "blockHash": "0xcf80cb17e175294c362113ca3a446dac88d26c4fa52fe65c126477fc8e8b0008",
          "blockNumber": "0x5b3e4d",
          "transactionHash": "0xd70797295edc7013b48499cdef605a50fb7f1b7529ea23287a42ec1c4baacc77",
          "transactionIndex": "0xa",
          "logIndex": "0x7",
          "removed": false
        }
      ],
      "status": "0x1",
      "logsBloom": "0x00000000000000000000000000000000000000000000000000000000000000000000000000000000000000004000000000000000000000000000000000000000000000000000000000000000000000000000000000000000000000000000000000000000000000000800000000000000000000000000000000000040000000000000000000000000000000000000000000000000000000000000000000000000000000000000000000000000000000000000800000000000000000000000000000000000000010000000000000000000000000002000000000000000000000000000000000000000000000000000000000000000000000000000000000000000",
      "type": "0x2",
      "effectiveGasPrice": "0xb2d85ae9"
    }
  ],
  "libraries": [],
  "pending": [],
  "returns": {},
  "timestamp": 1716702390,
  "chain": 11155111,
  "multi": false,
  "commit": "2176f87"
}