{
  "transactions": [
    {
      "hash": "0xad50fd110e1d83f7845a68ab88b5e3263bb77159cd6179c8e99a2cccc8a47d4a",
      "transactionType": "CALL",
      "contractName": null,
      "contractAddress": "0xc19547aE488933bcdc613f003930C19d58F4034f",
      "function": "certifyContract(uint256)",
      "arguments": [
        "1"
      ],
      "transaction": {
        "type": "0x02",
        "from": "0xd0f82ce5b90db8e459d6e2ca73b1af6aa50d65c9",
        "to": "0xc19547ae488933bcdc613f003930c19d58f4034f",
        "gas": "0x19372",
        "value": "0x0",
        "data": "0x3e24036e0000000000000000000000000000000000000000000000000000000000000001",
        "nonce": "0xc",
        "accessList": []
      },
      "additionalContracts": [],
      "isFixedGasLimit": false
    }
  ],
  "receipts": [
    {
      "transactionHash": "0xad50fd110e1d83f7845a68ab88b5e3263bb77159cd6179c8e99a2cccc8a47d4a",
      "transactionIndex": "0x9",
      "blockHash": "0x072009a99ba0fef6f1793d5b830db6b641950f7c8a7d2636375807957fbd4771",
      "blockNumber": "0x5b3bd1",
      "from": "0xd0F82Ce5B90db8E459d6e2Ca73b1AF6aa50D65c9",
      "to": "0xc19547aE488933bcdc613f003930C19d58F4034f",
      "cumulativeGasUsed": "0x59153",
      "gasUsed": "0x12417",
      "contractAddress": null,
      "logs": [
        {
          "address": "0xc19547aE488933bcdc613f003930C19d58F4034f",
          "topics": [
            "0xc06b3c4ac1016b789678fcd0cb2f65f5fcfcf81242ee624d3992408a294ce1f4"
          ],
          "data": "0x00000000000000000000000000000000000000000000000000000000000000010000000000000000000000000000000000000000000000000000000000000001000000000000000000000000d0f82ce5b90db8e459d6e2ca73b1af6aa50d65c9",
          "blockHash": "0x072009a99ba0fef6f1793d5b830db6b641950f7c8a7d2636375807957fbd4771",
          "blockNumber": "0x5b3bd1",
          "transactionHash": "0xad50fd110e1d83f7845a68ab88b5e3263bb77159cd6179c8e99a2cccc8a47d4a",
          "transactionIndex": "0x9",
          "logIndex": "0x6",
          "removed": false
        }
      ],
      "status": "0x1",
      "logsBloom": "0x00000000000000000000000000000000000000000000000000000000000000000000000000000000000000004000000000000000000000000000000000000000000000000000000000000000000000000000000000000000000000000000000000000400000000000800000000000000000000000000000000000040000000000000000000000000000000000000000000000000000000000000000000000000000000000000000000000000000000000000000000000000000000000000000000000000000000000000000000000000000000000000000000000000000000000000000000000000000000000000200000000000000000040000000000000000",
      "type": "0x2",
      "effectiveGasPrice": "0xb2daa370"
    }
  ],
  "libraries": [],
  "pending": [],
  "returns": {},
  "timestamp": 1716694482,
  "chain": 11155111,
  "multi": false,
  "commit": "2176f87"
}