{
  "transactions": [
    {
      "hash": "0xd70797295edc7013b48499cdef605a50fb7f1b7529ea23287a42ec1c4baacc77",
      "transactionType": "CALL",
      "contractName": null,
      "contractAddress": "0x1807102F9050E7111cc240e566ea672382CEbc00",
      "function": "certifyContract(uint256)",
      "arguments": [
        "0"
      ],
      "transaction": {
        "type": "0x02",
        "from": "0xd0f82ce5b90db8e459d6e2ca73b1af6aa50d65c9",
        "to": "0x1807102f9050e7111cc240e566ea672382cebc00",
        "gas": "0x19b1d",
        "value": "0x0",
        "data": "0x3e24036e0000000000000000000000000000000000000000000000000000000000000000",
        "nonce": "0x17",
        "accessList": []
      },
      "additionalContracts": [],
      "isFixedGasLimit": false
    }
  ],
  "receipts": [],
  "libraries": [],
  "pending": [
    "0xd70797295edc7013b48499cdef605a50fb7f1b7529ea23287a42ec1c4baacc77"
  ],
  "returns": {},
  "timestamp": 1716702377,
  "chain": 11155111,
  "multi": false,
  "commit": "2176f87"
}