{
  "transactions": [
    {
      "hash": "0xfbaec945a3dfd41b235a508bce131b3da4ea0839b99c18240a7ffdfbf0cf3656",
      "transactionType": "CALL",
      "contractName": null,
      "contractAddress": "0xc19547aE488933bcdc613f003930C19d58F4034f",
      "function": "certifyFrontend(uint256)",
      "arguments": [
        "0"
      ],
      "transaction": {
        "type": "0x02",
        "from": "0xd0f82ce5b90db8e459d6e2ca73b1af6aa50d65c9",
        "to": "0xc19547ae488933bcdc613f003930c19d58f4034f",
        "gas": "0x18449",
        "value": "0x0",
        "data": "0xaf1814f70000000000000000000000000000000000000000000000000000000000000000",
        "nonce": "0xa",
        "accessList": []
      },
      "additionalContracts": [],
      "isFixedGasLimit": false
    }
  ],
  "receipts": [],
  "libraries": [],
  "pending": [
    "0xfbaec945a3dfd41b235a508bce131b3da4ea0839b99c18240a7ffdfbf0cf3656"
  ],
  "returns": {},
  "timestamp": 1716686326,
  "chain": 11155111,
  "multi": false,
  "commit": "2176f87"
}