{
  "transactions": [
    {
      "hash": "0xfbaec945a3dfd41b235a508bce131b3da4ea0839b99c18240a7ffdfbf0cf3656",
      "transactionType": "CALL",
      "contractName": null,
      "contractAddress": "0xc19547aE488933bcdc613f003930C19d58F4034f",
      "function": "certifyFrontend(uint256)",
      "arguments": [
        "0"
      ],
      "transaction": {
        "type": "0x02",
        "from": "0xd0f82ce5b90db8e459d6e2ca73b1af6aa50d65c9",
        "to": "0xc19547ae488933bcdc613f003930c19d58f4034f",
        "gas": "0x18449",
        "value": "0x0",
        "data": "0xaf1814f70000000000000000000000000000000000000000000000000000000000000000",
        "nonce": "0xa",
        "accessList": []
      },
      "additionalContracts": [],
      "isFixedGasLimit": false
    }
  ],
  "receipts": [
    {
      "transactionHash": "0xfbaec945a3dfd41b235a508bce131b3da4ea0839b99c18240a7ffdfbf0cf3656",
      "transactionIndex": "0x4",
      "blockHash": "0x2c52d760821e0976698854ae3c7ebb1c72805d61b2cd581e75c7d3f44affa806",
      "blockNumber": "0x5b3956",
      "from": "0xd0F82Ce5B90db8E459d6e2Ca73b1AF6aa50D65c9",
      "to": "0xc19547aE488933bcdc613f003930C19d58F4034f",
      "cumulativeGasUsed": "0x4afb4",
      "gasUsed": "0x1191e",
      "contractAddress": null,
      "logs": [
        {
          "address": "0xc19547aE488933bcdc613f003930C19d58F4034f",
          "topics": [
            "0x73ae71619889828fd8fbaa0d4f409ab2a362f155c859b2c5ff88c9b0df3e30cc"
          ],
          "data": "0x00000000000000000000000000000000000000000000000000000000000000000000000000000000000000000000000000000000000000000000000000000000000000000000000000000000d0f82ce5b90db8e459d6e2ca73b1af6aa50d65c9",
          "blockHash": "0x2c52d760821e0976698854ae3c7ebb1c72805d61b2cd581e75c7d3f44affa806",
          "blockNumber": "0x5b3956",
          "transactionHash": "0xfbaec945a3dfd41b235a508bce131b3da4ea0839b99c18240a7ffdfbf0cf3656",
          "transactionIndex": "0x4",
          "logIndex": "0x3",
          "removed": false
        }
      ],
      "status": "0x1",
      "logsBloom": "0x00000000000000000000000000000000000000000000000000000000000000000000000000000000000000000000000000000000000000000000000000000000000000000000000000000000000000000000000000000000000000000000000000000400000200000000000000000000000000000000000000000000000000000001000000000000000000000000000000000000000000000000000000000000000000000000000000000000000000000000000000000000000000000000000000000000002000000000000000000000000000000000000000000000000000000000000000000000000000000000200000000000000000040000000000000000",
      "type": "0x2",
      "effectiveGasPrice": "0xb2d77ecd"
    }
  ],
  "libraries": [],
  "pending": [],
  "returns": {},
  "timestamp": 1716686345,
  "chain": 11155111,
  "multi": false,
  "commit": "2176f87"
}