{
  "transactions": [
    {
      "hash": "0x0b791b1b09b9d793474b6c9d18f274069bc5d4de39ca5ca1f5f9132ecc032b50",
      "transactionType": "CALL",
      "contractName": null,
      "contractAddress": "0xb6fA4E3BBfd97bc5C26d3F39947f9b1aF1828B36",
      "function": "certifyFrontend(uint256)",
      "arguments": [
        "0"
      ],
      "transaction": {
        "type": "0x02",
        "from": "0xd0f82ce5b90db8e459d6e2ca73b1af6aa50d65c9",
        "to": "0xb6fa4e3bbfd97bc5c26d3f39947f9b1af1828b36",
        "gas": "0x18449",
        "value": "0x0",
        "data": "0xaf1814f70000000000000000000000000000000000000000000000000000000000000000",
        "nonce": "0x1e",
        "accessList": []
      },
      "additionalContracts": [],
      "isFixedGasLimit": false
    }
  ],
  "receipts": [
    {
      "transactionHash": "0x0b791b1b09b9d793474b6c9d18f274069bc5d4de39ca5ca1f5f9132ecc032b50",
      "transactionIndex": "0x9",
      "blockHash": "0xf31f6cf5e460a0cfdb6e6dadc1063107a3553704a1a690c89b376847c192349c",
      "blockNumber": "0x5b3ea3",
      "from": "0xd0F82Ce5B90db8E459d6e2Ca73b1AF6aa50D65c9",
      "to": "0xb6fA4E3BBfd97bc5C26d3F39947f9b1aF1828B36",
      "cumulativeGasUsed": "0x7aeaa",
      "gasUsed": "0x1191e",
      "contractAddress": null,
      "logs": [
        {
          "address": "0xb6fA4E3BBfd97bc5C26d3F39947f9b1aF1828B36",
          "topics": [
            "0x73ae71619889828fd8fbaa0d4f409ab2a362f155c859b2c5ff88c9b0df3e30cc"
          ],
          "data": "0x00000000000000000000000000000000000000000000000000000000000000000000000000000000000000000000000000000000000000000000000000000000000000000000000000000000d0f82ce5b90db8e459d6e2ca73b1af6aa50d65c9",
          "blockHash": "0xf31f6cf5e460a0cfdb6e6dadc1063107a3553704a1a690c89b376847c192349c",
          "blockNumber": "0x5b3ea3",
          "transactionHash": "0x0b791b1b09b9d793474b6c9d18f274069bc5d4de39ca5ca1f5f9132ecc032b50",
          "transactionIndex": "0x9",
          "logIndex": "0x8",
          "removed": false
        }
      ],
      "status": "0x1",
      "logsBloom": "0x00000000000000000000000000000000000000000000000000000000000000000000000000000000000000000000000000200000000000020000000000000000000000000000000000000000000000000000000000000000000000000000000000000000000200000000000000000000000000000000000000000000000000000001000000000000000000000000000000000000000000000000000000000000000000000000000000080000000000000000000000000000000000000000000000000000002000000000000000000000000000000000000000000000000000000000000000000000000000000000000000000000000000000000000000000000",
      "type": "0x2",
      "effectiveGasPrice": "0xb2d74ff5"
    }
  ],
  "libraries": [],
  "pending": [],
  "returns": {},
  "timestamp": 1716703481,
  "chain": 11155111,
  "multi": false,
  "commit": "2176f87"
}