{
  "transactions": [
    {
      "hash": "0x6c800a07c59d8b9ae8035a1c32075c1f2eae6872963ed1b528c02a0025e80911",
      "transactionType": "CALL",
      "contractName": null,
      "contractAddress": "0x1807102F9050E7111cc240e566ea672382CEbc00",
      "function": "certifyFrontend(uint256)",
      "arguments": [
        "0"
      ],
      "transaction": {
        "type": "0x02",
        "from": "0xd0f82ce5b90db8e459d6e2ca73b1af6aa50d65c9",
        "to": "0x1807102f9050e7111cc240e566ea672382cebc00",
        "gas": "0x18449",
        "value": "0x0",
        "data": "0xaf1814f70000000000000000000000000000000000000000000000000000000000000000",
        "nonce": "0x18",
        "accessList": []
      },
      "additionalContracts": [],
      "isFixedGasLimit": false
    }
  ],
  "receipts": [],
  "libraries": [],
  "pending": [
    "0x6c800a07c59d8b9ae8035a1c32075c1f2eae6872963ed1b528c02a0025e80911"
  ],
  "returns": {},
  "timestamp": 1716702413,
  "chain": 11155111,
  "multi": false,
  "commit": "2176f87"
}