{
  "transactions": [
    {
      "hash": "0x06a26db44695b53c5f18a427a8a8001466912f640413db187ff08a6b5fd48297",
      "transactionType": "CALL",
      "contractName": null,
      "contractAddress": "0xc19547aE488933bcdc613f003930C19d58F4034f",
      "function": "certifyFrontend(uint256)",
      "arguments": [
        "2"
      ],
      "transaction": {
        "type": "0x02",
        "from": "0xd0f82ce5b90db8e459d6e2ca73b1af6aa50d65c9",
        "to": "0xc19547ae488933bcdc613f003930c19d58f4034f",
        "gas": "0x1ab32",
        "value": "0x0",
        "data": "0xaf1814f70000000000000000000000000000000000000000000000000000000000000002",
        "nonce": "0x12",
        "accessList": []
      },
      "additionalContracts": [],
      "isFixedGasLimit": false
    }
  ],
  "receipts": [],
  "libraries": [],
  "pending": [
    "0x06a26db44695b53c5f18a427a8a8001466912f640413db187ff08a6b5fd48297"
  ],
  "returns": {},
  "timestamp": 1716698479,
  "chain": 11155111,
  "multi": false,
  "commit": "2176f87"
}