{
  "transactions": [
    {
      "hash": "0x90f69bb8e9b7b0aa66d292a0d32695021dc1d2295735ef2fe30884499ce3996d",
      "transactionType": "CALL",
      "contractName": null,
      "contractAddress": "0xc19547aE488933bcdc613f003930C19d58F4034f",
      "function": "certifyFrontend(uint256)",
      "arguments": [
        "1"
      ],
      "transaction": {
        "type": "0x02",
        "from": "0xd0f82ce5b90db8e459d6e2ca73b1af6aa50d65c9",
        "to": "0xc19547ae488933bcdc613f003930c19d58f4034f",
        "gas": "0x1ab32",
        "value": "0x0",
        "data": "0xaf1814f70000000000000000000000000000000000000000000000000000000000000001",
        "nonce": "0x11",
        "accessList": []
      },
      "additionalContracts": [],
      "isFixedGasLimit": false
    }
  ],
  "receipts": [
    {
      "transactionHash": "0x90f69bb8e9b7b0aa66d292a0d32695021dc1d2295735ef2fe30884499ce3996d",
      "transactionIndex": "0xf",
      "blockHash": "0xe605895b4413a3fab0b5210aeaf86abee7bcbd5f5c8319af3db8c931b567e9bd",
      "blockNumber": "0x5b3d14",
      "from": "0xd0F82Ce5B90db8E459d6e2Ca73b1AF6aa50D65c9",
      "to": "0xc19547aE488933bcdc613f003930C19d58F4034f",
      "cumulativeGasUsed": "0xa7659",
      "gasUsed": "0x1241a",
      "contractAddress": null,
      "logs": [
        {
          "address": "0xc19547aE488933bcdc613f003930C19d58F4034f",
          "topics": [
            "0x73ae71619889828fd8fbaa0d4f409ab2a362f155c859b2c5ff88c9b0df3e30cc"
          ],
          "data": "0x00000000000000000000000000000000000000000000000000000000000000010000000000000000000000000000000000000000000000000000000000000001000000000000000000000000d0f82ce5b90db8e459d6e2ca73b1af6aa50d65c9",
          "blockHash": "0xe605895b4413a3fab0b5210aeaf86abee7bcbd5f5c8319af3db8c931b567e9bd",
          "blockNumber": "0x5b3d14",
          "transactionHash": "0x90f69bb8e9b7b0aa66d292a0d32695021dc1d2295735ef2fe30884499ce3996d",
          "transactionIndex": "0xf",
          "logIndex": "0xa",
          "removed": false
        }
      ],
      "status": "0x1",
      "logsBloom": "0x00000000000000000000000000000000000000000000000000000000000000000000000000000000000000000000000000000000000000000000000000000000000000000000000000000000000000000000000000000000000000000000000000000400000200000000000000000000000000000000000000000000000000000001000000000000000000000000000000000000000000000000000000000000000000000000000000000000000000000000000000000000000000000000000000000000002000000000000000000000000000000000000000000000000000000000000000000000000000000000200000000000000000040000000000000000",
      "type": "0x2",
      "effectiveGasPrice": "0xb2db4776"
    }
  ],
  "libraries": [],
  "pending": [],
  "returns": {},
  "timestamp": 1716698466,
  "chain": 11155111,
  "multi": false,
  "commit": "2176f87"
}