{
  "transactions": [
    {
      "hash": "0x06a26db44695b53c5f18a427a8a8001466912f640413db187ff08a6b5fd48297",
      "transactionType": "CALL",
      "contractName": null,
      "contractAddress": "0xc19547aE488933bcdc613f003930C19d58F4034f",
      "function": "certifyFrontend(uint256)",
      "arguments": [
        "2"
      ],
      "transaction": {
        "type": "0x02",
        "from": "0xd0f82ce5b90db8e459d6e2ca73b1af6aa50d65c9",
        "to": "0xc19547ae488933bcdc613f003930c19d58f4034f",
        "gas": "0x1ab32",
        "value": "0x0",
        "data": "0xaf1814f70000000000000000000000000000000000000000000000000000000000000002",
        "nonce": "0x12",
        "accessList": []
      },
      "additionalContracts": [],
      "isFixedGasLimit": false
    }
  ],
  "receipts": [
    {
      "transactionHash": "0x06a26db44695b53c5f18a427a8a8001466912f640413db187ff08a6b5fd48297",
      "transactionIndex": "0x10",
      "blockHash": "0x7cdefbf6f1277fc50e0ae128564f69ec4be8ed35f6d766e6b4512ac2d301a0b2",
      "blockNumber": "0x5b3d15",
      "from": "0xd0F82Ce5B90db8E459d6e2Ca73b1AF6aa50D65c9",
      "to": "0xc19547aE488933bcdc613f003930C19d58F4034f",
      "cumulativeGasUsed": "0x941ad",
      "gasUsed": "0x1241a",
      "contractAddress": null,
      "logs": [
        {
          "address": "0xc19547aE488933bcdc613f003930C19d58F4034f",
          "topics": [
            "0x73ae71619889828fd8fbaa0d4f409ab2a362f155c859b2c5ff88c9b0df3e30cc"
          ],
          "data": "0x00000000000000000000000000000000000000000000000000000000000000020000000000000000000000000000000000000000000000000000000000000002000000000000000000000000d0f82ce5b90db8e459d6e2ca73b1af6aa50d65c9",
          "blockHash": "0x7cdefbf6f1277fc50e0ae128564f69ec4be8ed35f6d766e6b4512ac2d301a0b2",
          "blockNumber": "0x5b3d15",
          "transactionHash": "0x06a26db44695b53c5f18a427a8a8001466912f640413db187ff08a6b5fd48297",
          "transactionIndex": "0x10",
          "logIndex": "0x9",
          "removed": false
        }
      ],
      "status": "0x1",
      "logsBloom": "0x00000000000000000000000000000000000000000000000000000000000000000000000000000000000000000000000000000000000000000000000000000000000000000000000000000000000000000000000000000000000000000000000000000400000200000000000000000000000000000000000000000000000000000001000000000000000000000000000000000000000000000000000000000000000000000000000000000000000000000000000000000000000000000000000000000000002000000000000000000000000000000000000000000000000000000000000000000000000000000000200000000000000000040000000000000000",
      "type": "0x2",
      "effectiveGasPrice": "0xb2dade7e"
    }
  ],
  "libraries": [],
  "pending": [],
  "returns": {},
  "timestamp": 1716698492,
  "chain": 11155111,
  "multi": false,
  "commit": "2176f87"
}