{
  "transactions": [
    {
      "hash": "0x6c800a07c59d8b9ae8035a1c32075c1f2eae6872963ed1b528c02a0025e80911",
      "transactionType": "CALL",
      "contractName": null,
      "contractAddress": "0x1807102F9050E7111cc240e566ea672382CEbc00",
      "function": "certifyFrontend(uint256)",
      "arguments": [
        "0"
      ],
      "transaction": {
        "type": "0x02",
        "from": "0xd0f82ce5b90db8e459d6e2ca73b1af6aa50d65c9",
        "to": "0x1807102f9050e7111cc240e566ea672382cebc00",
        "gas": "0x18449",
        "value": "0x0",
        "data": "0xaf1814f70000000000000000000000000000000000000000000000000000000000000000",
        "nonce": "0x18",
        "accessList": []
      },
      "additionalContracts": [],
      "isFixedGasLimit": false
    }
  ],
  "receipts": [
    {
      "transactionHash": "0x6c800a07c59d8b9ae8035a1c32075c1f2eae6872963ed1b528c02a0025e80911",
      "transactionIndex": "0x8",
      "blockHash": "0xd962c95a1bebdec8b2133f5df3e69c943b02694895e52be0963f98328527be3d",
      "blockNumber": "0x5b3e50",
      "from": "0xd0F82Ce5B90db8E459d6e2Ca73b1AF6aa50D65c9",
      "to": "0x1807102F9050E7111cc240e566ea672382CEbc00",
      "cumulativeGasUsed": "0x4d4ff",
      "gasUsed": "0x1191e",
      "contractAddress": null,
      "logs": [
        {
          "address": "0x1807102F9050E7111cc240e566ea672382CEbc00",
          "topics": [
            "0x73ae71619889828fd8fbaa0d4f409ab2a362f155c859b2c5ff88c9b0df3e30cc"
          ],
          "data": "0x00000000000000000000000000000000000000000000000000000000000000000000000000000000000000000000000000000000000000000000000000000000000000000000000000000000d0f82ce5b90db8e459d6e2ca73b1af6aa50d65c9",
          "blockHash": "0xd962c95a1bebdec8b2133f5df3e69c943b02694895e52be0963f98328527be3d",
          "blockNumber": "0x5b3e50",
          "transactionHash": "0x6c800a07c59d8b9ae8035a1c32075c1f2eae6872963ed1b528c02a0025e80911",
          "transactionIndex": "0x8",
          "logIndex": "0x4",
          "removed": false
        }
      ],
      "status": "0x1",
      "logsBloom": "0x00000000000000000000000000000000000000000000000000000000000000000000000000000000000000000000000000000000000000000000000000000000000000000000000000000000000000000000000000000000000000000000000000000000000200000000000000000000000000000000000000000000000000000001000000000000000000000000000000000000000000000000000000000000000000000000000000000000000000000000800000000000000000000000000000000000002010000000000000000000000000002000000000000000000000000000000000000000000000000000000000000000000000000000000000000000",
      "type": "0x2",
      "effectiveGasPrice": "0xb2d97ea0"
    }
  ],
  "libraries": [],
  "pending": [],
  "returns": {},
  "timestamp": 1716702426,
  "chain": 11155111,
  "multi": false,
  "commit": "2176f87"
}