{
  "transactions": [
    {
      "hash": "0x90f69bb8e9b7b0aa66d292a0d32695021dc1d2295735ef2fe30884499ce3996d",
      "transactionType": "CALL",
      "contractName": null,
      "contractAddress": "0xc19547aE488933bcdc613f003930C19d58F4034f",
      "function": "certifyFrontend(uint256)",
      "arguments": [
        "1"
      ],
      "transaction": {
        "type": "0x02",
        "from": "0xd0f82ce5b90db8e459d6e2ca73b1af6aa50d65c9",
        "to": "0xc19547ae488933bcdc613f003930c19d58f4034f",
        "gas": "0x1ab32",
        "value": "0x0",
        "data": "0xaf1814f70000000000000000000000000000000000000000000000000000000000000001",
        "nonce": "0x11",
        "accessList": []
      },
      "additionalContracts": [],
      "isFixedGasLimit": false
    }
  ],
  "receipts": [],
  "libraries": [],
  "pending": [
    "0x90f69bb8e9b7b0aa66d292a0d32695021dc1d2295735ef2fe30884499ce3996d"
  ],
  "returns": {},
  "timestamp": 1716698454,
  "chain": 11155111,
  "multi": false,
  "commit": "2176f87"
}